:020000040800F2
:1000000000500020B12A0008792800088128000843
:10001000892800089128000899280008000000009D
:10002000000000000000000000000000A1280008FF
:10003000AD28000800000000B9280008C528000805
:10004000F92A0008F92A0008F92A0008F92A000804
:10005000F92A0008F92A0008F92A0008F92A0008F4
:10006000F92A0008F92A0008F92A0008F92A0008E4
:10007000F92A0008D1280008E5280008F92A000814
:10008000F92A0008F92A0008F92A0008F92A0008C4
:10009000F92A0008F92A0008F92A0008F92A0008B4
:1000A000F92A0008F92A0008F92A0008F92A0008A4
:1000B000F92A0008F92A0008F92A0008F92A000894
:1000C000F92A0008F92A0008F92A0008F928000886
:1000D000F92A00080D290008F92A0008F92A000861
:1000E000F92A0008F92A0008F92A0008000000008F
:1000F0000000000000000000000000000000000000
:0C01000000000000000000005FF808F1A3
:1001100010B5054C237833B9044B13B10448AFF341
:1001200000800123237010BDD801002000000000D2
:1001300044B0000808B5034B1BB103490348AFF3B3
:10014000008008BD00000000DC01002044B0000871
:10015000034613F8012B002AFBD1181A0138704707
:1001600081F0004102E000BF83F0004330B54FEA68
:1001700041044FEA430594EA050F08BF90EA020FD5
:100180001FBF54EA000C55EA020C7FEA645C7FEA68
:10019000655C00F0E2804FEA5454D4EB5555B8BF8B
:1001A0006D420CDD2C4480EA020281EA030382EAFC
:1001B000000083EA010180EA020281EA0303362D8E
:1001C00088BF30BD11F0004F4FEA01314FF4801C61
:1001D0004CEA113102D0404261EB410113F0004F73
:1001E0004FEA03334CEA133302D0524263EB43032A
:1001F00094EA050F00F0A780A4F10104D5F1200EC8
:100200000DDB02FA0EFC22FA05F2801841F1000122
:1002100003FA0EF2801843FA05F359410EE0A5F1F6
:1002200020050EF1200E012A03FA0EFC28BF4CF027
:10023000020C43FA05F3C01851EBE37101F00045DD
:1002400007D54FF0000EDCF1000C7EEB00006EEBEA
:100250000101B1F5801F1BD3B1F5001F0CD3490874
:100260005FEA30004FEA3C0C04F101044FEA4452CB
:1002700012F5800F80F09A80BCF1004F08BF5FEA52
:10028000500C50F1000041EB045141EA050130BD32
:100290005FEA4C0C404141EB0101013C28BFB1F544
:1002A000801FE9D291F0000F04BF01460020B1FA8F
:1002B00081F308BF2033A3F10B03B3F120020CDA62
:1002C0000C3208DD02F1140CC2F10C0201FA0CF040
:1002D00021FA02F10CE002F11402D8BFC2F1200CA5
:1002E00001FA02F120FA0CFCDCBF41EA0C0190405B
:1002F000E41AA2BF01EB0451294330BD6FEA0404A4
:100300001F3C1CDA0C340EDC04F11404C4F120028E
:1003100020FA04F001FA02F340EA030021FA04F3A0
:1003200045EA030130BDC4F10C04C4F1200220FAF7
:1003300002F001FA04F340EA0300294630BD21FA35
:1003400004F0294630BD94F0000F83F4801306BFFB
:1003500081F480110134013D4EE77FEA645C18BFEF
:100360007FEA655C29D094EA050F08BF90EA020F86
:1003700005D054EA000C04BF1946104630BD91EA7E
:10038000030F1EBF0021002030BD5FEA545C05D181
:100390004000494128BF41F0004130BD14F58004C0
:1003A0003CBF01F5801130BD01F0004545F0FE4134
:1003B00041F470014FF0000030BD7FEA645C1ABF69
:1003C000194610467FEA655C1CBF0B46024650EAA0
:1003D000013406BF52EA033591EA030F41F40021CC
:1003E00030BD00BF90F0000F04BF0021704730B552
:1003F0004FF4806404F132044FF000054FF0000127
:1004000050E700BF90F0000F04BF0021704730B5E7
:100410004FF4806404F1320410F0004548BF4042BC
:100420004FF000013EE700BF42004FEAE2014FEA11
:1004300031014FEA02701FBF12F07F4393F07F4FEC
:1004400081F06051704732F07F4208BF704793F0EF
:100450007F4F04BF41F40021704730B54FF4607402
:1004600001F0004521F000411CE700BF50EA010205
:1004700008BF704730B54FF000050AE050EA0102AE
:1004800008BF704730B511F0004502D5404261EB1E
:1004900041014FF4806404F132045FEA915C3FF45F
:1004A000D8AE4FF003025FEADC0C18BF03325FEAFC
:1004B000DC0C18BF033202EBDC02C2F1200300FAAD
:1004C00003FC20FA02F001FA03FE40EA0E0021FAD2
:1004D00002F11444BDE600BF70B54FF0FF0C4CF4C0
:1004E000E06C1CEA11541DBF1CEA135594EA0C0F72
:1004F00095EA0C0F00F0DEF82C4481EA030621EAAD
:100500004C5123EA4C5350EA013518BF52EA0335E7
:1005100041F4801143F4801338D0A0FB02CE4FF099
:100520000005E1FB02E506F00042E0FB03E54FF0C9
:100530000006E1FB03569CF0000F18BF4EF0010EC1
:10054000A4F1FF04B6F5007F64F5407404D25FEABD
:100550004E0E6D4146EB060642EAC62141EA555170
:100560004FEAC52040EA5E504FEACE2EB4F1FD0CB2
:1005700088BFBCF5E06F1ED8BEF1004F08BF5FEA30
:10058000500E50F1000041EB045170BD06F00046E2
:1005900046EA010140EA020081EA0301B4EB5C048F
:1005A000C2BFD4EB0C0541EA045170BD41F4801187
:1005B0004FF0000E013C00F3AB8014F1360FDEBFAC
:1005C000002001F0004170BDC4F10004203C35DA88
:1005D0000C341BDC04F11404C4F1200500FA05F30B
:1005E00020FA04F001FA05F240EA020001F00042AC
:1005F00021F0004110EBD37021FA04F642EB060122
:100600005EEA430E08BF20EAD37070BDC4F10C044B
:10061000C4F1200500FA04F320FA05F001FA04F20F
:1006200040EA020001F0004110EBD37041F10001FB
:100630005EEA430E08BF20EAD37070BDC4F1200506
:1006400000FA05F24EEA020E20FA04F301FA05F26E
:1006500043EA020321FA04F001F0004121FA04F216
:1006600020EA020000EBD3705EEA430E08BF20EAE6
:10067000D37070BD94F0000F0FD101F00046400020
:1006800041EB010111F4801F08BF013CF7D041EAA2
:10069000060195F0000F18BF704703F000465200A6
:1006A00043EB030313F4801F08BF013DF7D043EA77
:1006B0000603704794EA0C0F0CEA135518BF95EA2D
:1006C0000C0F0CD050EA410618BF52EA4306D1D1B4
:1006D00081EA030101F000414FF0000070BD50EAD3
:1006E000410606BF1046194652EA430619D094EA5D
:1006F0000C0F02D150EA013613D195EA0C0F05D147
:1007000052EA03361CBF104619460AD181EA03019A
:1007100001F0004141F0FE4141F470014FF0000052
:1007200070BD41F0FE4141F4780170BD70B54FF0ED
:10073000FF0C4CF4E06C1CEA11541DBF1CEA13556D
:1007400094EA0C0F95EA0C0F00F0A7F8A4EB05044F
:1007500081EA030E52EA03354FEA013100F0888046
:100760004FEA03334FF0805545EA131343EA12630F
:100770004FEA022245EA111545EA10654FEA0026C4
:100780000EF000419D4208BF964244F1FD0404F57D
:10079000407402D25B084FEA3202B61A65EB0305D9
:1007A0005B084FEA32024FF480104FF4002CB6EB96
:1007B000020E75EB030E22BFB61A754640EA0C0016
:1007C0005B084FEA3202B6EB020E75EB030E22BF56
:1007D000B61A754640EA5C005B084FEA3202B6EB97
:1007E000020E75EB030E22BFB61A754640EA9C0056
:1007F0005B084FEA3202B6EB020E75EB030E22BF26
:10080000B61A754640EADC0055EA060E18D04FEAE3
:10081000051545EA16754FEA06164FEAC30343EA83
:1008200052734FEAC2025FEA1C1CC0D111F4801F50
:100830000BD141EA00014FF000004FF0004CB6E749
:1008400011F4801F04BF01430020B4F1FD0C88BFE8
:10085000BCF5E06F3FF6AFAEB5EB030C04BFB6EBF3
:10086000020C5FEA500C50F1000041EB045170BDE6
:100870000EF0004E4EEA113114EB5C04C2BFD4EB13
:100880000C0541EA045170BD41F480114FF0000E97
:10089000013C90E645EA060E8DE60CEA135594EA13
:1008A0000C0F08BF95EA0C0F3FF43BAF94EA0C0F16
:1008B0000AD150EA01347FF434AF95EA0C0F7FF48B
:1008C00025AF104619462CE795EA0C0F06D152EADF
:1008D00003353FF4FDAE1046194622E750EA4106C3
:1008E00018BF52EA43067FF4C5AE50EA41047FF4D4
:1008F0000DAF52EA43057FF4EBAE12E74FF0FF3C39
:1009000006E000BF4FF0010C02E000BF4FF0010C09
:100910004DF804CD4FEA410C7FEA6C5C4FEA430C82
:1009200018BF7FEA6C5C1BD001B050EA410C0CBFD1
:1009300052EA430C91EA030F02BF90EA020F002033
:10094000704710F1000F91EA030F58BF994208BF9A
:1009500090422CBFD8176FEAE37040F00100704757
:100960004FEA410C7FEA6C5C02D150EA013C07D1AE
:100970004FEA430C7FEA6C5CD6D152EA033CD3D0F9
:100980005DF8040B704700BF8446104662468C46F3
:100990001946634600E000BF01B5FFF7B7FF002826
:1009A00048BF10F1000F01BD4DF808EDFFF7F4FF4F
:1009B0000CBF012000205DF808FB00BF4DF808EDDA
:1009C000FFF7EAFF34BF012000205DF808FB00BFFD
:1009D0004DF808EDFFF7E0FF94BF012000205DF81F
:1009E00008FB00BF4DF808EDFFF7CEFF94BF0120D4
:1009F00000205DF808FB00BF4DF808EDFFF7C4FFCD
:100A000034BF012000205DF808FB00BF4FEA410C15
:100A10007FEA6C5C02D150EA013C0AD14FEA430CF8
:100A20007FEA6C5C02D152EA033C02D14FF0000035
:100A300070474FF0010070474FEA410212F5001273
:100A400015D211D56FF47873B3EB625212D94FEA15
:100A5000C12343F0004343EA505311F0004F23FAFF
:100A600002F018BF404270474FF00000704750EA54
:100A7000013005D111F0004008BF6FF00040704711
:100A80004FF00000704700BF4A0011D212F500126B
:100A900011D20DD56FF47873B3EB62520ED44FEAD6
:100AA000C12343F0004343EA505323FA02F0704756
:100AB0004FF00000704750EA013002D14FF0FF3094
:100AC00070474FF0000070474FEA4102B2F1E04337
:100AD00024BFB3F5001CDCF1FE5C0DD901F0004C25
:100AE0004FEAC0024CEA5070B2F1004F40EB830075
:100AF00008BF20F00100704711F0804F21D113F1A1
:100B00003872BCBF01F00040704741F480114FEAD9
:100B10005252C2F11802C2F1200C10FA0CF320FA62
:100B200002F018BF40F001004FEAC1234FEAD3237F
:100B300003FA0CFC40EA0C0023FA02F34FEA4303E9
:100B4000CCE77FEA625307D150EA01331EBF4FF072
:100B5000FE4040F44000704701F0004040F0FE408D
:100B600040F40000704700BF80F0004002E000BF8A
:100B700081F0004142001FBF5FEA410392EA030F88
:100B80007FEA226C7FEA236C6AD04FEA1262D2EBD2
:100B90001363C1BFD218414048404140B8BF5B42D7
:100BA000192B88BF704710F0004F40F4000020F070
:100BB0007F4018BF404211F0004F41F4000121F086
:100BC0007F4118BF494292EA030F3FD0A2F10102D0
:100BD00041FA03FC10EB0C00C3F1200301FA03F10E
:100BE00000F0004302D5494260EB4000B0F5000F31
:100BF00013D3B0F1807F06D340084FEA310102F1F0
:100C00000102FE2A51D2B1F1004F40EBC25008BFA1
:100C100020F0010040EA03007047490040EB00006B
:100C2000013A28BFB0F5000FEDD2B0FA80FCACF16C
:100C3000080CB2EB0C0200FA0CF0AABF00EBC25099
:100C400052421843BCBFD0401843704792F0000F87
:100C500081F4000106BF80F400000132013BB5E7DA
:100C60004FEA41037FEA226C18BF7FEA236C21D050
:100C700092EA030F04D092F0000F08BF08467047B5
:100C800090EA010F1CBF0020704712F07F4F04D183
:100C9000400028BF40F00040704712F100723CBF96
:100CA00000F50000704700F0004343F0FE4040F4C0
:100CB000000070477FEA226216BF08467FEA23637E
:100CC0000146420206BF5FEA412390EA010F40F469
:100CD000800070474FF0000304E000BF10F00043B5
:100CE00048BF40425FEA000C08BF704743F096439C
:100CF00001464FF000001CE050EA010208BF7047B7
:100D00004FF000030AE000BF50EA010208BF70473D
:100D100011F0004302D5404261EB41015FEA010C52
:100D200002BF84460146002043F0B64308BFA3F14A
:100D30008053A3F50003BCFA8CF2083AA3EBC2532C
:100D400010DB01FA02FC634400FA02FCC2F120024B
:100D5000BCF1004F20FA02F243EB020008BF20F082
:100D60000100704702F1200201FA02FCC2F12002E8
:100D700050EA4C0021FA02F243EB020008BF20EADD
:100D8000DC70704742000ED2B2F1FE4F0BD34FF031
:100D90009E03B3EB126209D44FEA002343F00043F1
:100DA00023FA02F070474FF00000704712F1610F14
:100DB00001D1420202D14FF0FF3070474FF00000E6
:100DC000704700BF38B50022002304460D46FFF7E8
:100DD000F5FD28B920462946BDE8384000F00AB89C
:100DE000204605F1004100F005F8404261EB410169
:100DF00038BD00BFD0B500220B4B06460F46FFF7AB
:100E00006BFBFFF741FE0446FFF7ECFA0022074BAD
:100E1000FFF762FB02460B4630463946FFF7A4F95E
:100E2000FFF732FE2146D0BD0000F03D0000F0414A
:100E300090B589B000AF0446084611461A462346CD
:100E4000FB800346BB800B467B8013463B807B8840
:100E5000013BFB610023BB6101237B6101233B61FB
:100E60007B885B007A69D31AFB608DE0FB699AB2DC
:100E7000FB88134498B2BB699AB2BB8813449BB2F7
:100E80003A88194600F074FCBB699AB2FB88134497
:100E900098B2FB699AB2BB8813449BB23A88194650
:100EA00000F066FCBB699BB2FA88D31A98B2FB6962
:100EB0009AB2BB8813449BB23A88194600F058FC9A
:100EC000FB699BB2FA88D31A98B2BB699AB2BB8805
:100ED00013449BB23A88194600F04AFCFB699BB266
:100EE000FA88D31A98B2BB699BB2BA88D31A9BB25C
:100EF0003A88194600F03CFCBB699BB2FA88D31AC9
:100F000098B2FB699BB2BA88D31A9BB23A88194649
:100F100000F02EFCBB699AB2FB88134498B2FB69BF
:100F20009BB2BA88D31A9BB23A88194600F020FCCB
:100F3000FB699AB2FB88134498B2BB699BB2BA882A
:100F4000D31A9BB23A88194600F012FCFB68002BBA
:100F500009DCBB690133BB61FA683B691344FB6080
:100F60003B6902333B61FB68002B0DDDFB69013BF4
:100F7000FB617B6902337B617B885B425A007B6942
:100F80001344FA681344FB60FA69BB699A42BFF6DE
:100F90006DAF00BF00BF2437BD4690BD90B58DB08A
:100FA00002AFB96011461A460346FB730B46BB817C
:100FB0001346FB80FB7B1E2B64D997F90F30002B67
:100FC00060DBBB681B78FB77BB6801331B78BB77A2
:100FD000BB6802331B787B77BB6803331B783B7796
:100FE000FB7B203BFA7F02FB03F30433BA68134414
:100FF000BB61BB7F9AB27B7F9CB2F988B889BB8FFB
:101000000093234600F01AFC00237B6235E00023A6
:101010003B622BE03B7F3A6A03FB02F27B6ADB1008
:1010200003F01F0313440133BA6913441B78FB75A3
:101030007B6A03F00703012202FA03F3BB75FA7D12
:10104000BB7D1340DBB2002B0DD03B6A9AB2BB894B
:10105000134498B27B6A9AB2FB8813449BB23A8FCE
:10106000194600F085FB3B6A01333B62BB7F3A6A5D
:101070009A42CFDB7B6A01337B627B7F7A6A9A423A
:10108000C5DB00E000BF2C37BD4690BD80B58AB0FF
:1010900002AFF860B96011461A460B46FB80134652
:1010A000BB80BB681B78FB77BB6801331B78BB77C1
:1010B0002DE0FB681878B988FA88BB8D01933B8DC9
:1010C00000930B46B968FFF769FFFB681B78203B6C
:1010D000FA7F02FB03F30433BA681344BB61BB69B4
:1010E0001B78FB75FB7D9A1CBB7F9A4207DAFB7D60
:1010F0009AB2FB8813449BB20233FB8004E0BB7FAF
:101100009AB2FB881344FB80FB680133FB60FB68E9
:101110001B78002BCDD100BF00BF2037BD4680BD5E
:1011200080B582B000AF78607B68064A934204D1F4
:1011300001220821044802F0CCFD00BF0837BD465B
:1011400080BD00BF7C0200200008014080B582B055
:1011500000AF0346FB7100BF084B1B689B6803F0A0
:101160000203022BF8D1FB1D01221946034804F0AB
:10117000F3F800BF0837BD4680BD00BF7C020020E9
:1011800080B582B000AF78600B467B8000BF084B13
:101190001B689B6803F00203022BF8D17B881A4678
:1011A0007968034804F0D8F800BF0837BD4680BD11
:1011B0007C02002080B582B000AF0346FB710022A4
:1011C0001021084802F085FD00220821054802F0A0
:1011D00080FDFB791846FFF7B9FF00BF0837BD4611
:1011E00080BD00BF0008014080B582B000AF03465B
:1011F000FB7101221021084802F06BFD002208213A
:10120000054802F066FDFB791846FFF79FFF00BF17
:101210000837BD4680BD00BF0008014080B582B0E0
:1012200000AF78600B467B8001221021084802F055
:1012300050FD00220821064802F04BFD7B8819462C
:101240007868FFF79DFF00BF0837BD4680BD00BF2F
:101250000008014090B585B000AF0446084611462D
:101260001A462346FB800346BB800B467B80134611
:101270003B80FB881B0A9BB2DBB23B73FB88DBB273
:101280007B737B881B0A9BB2DBB2BB737B88DBB2B0
:10129000FB732A20FFF78EFF07F10C030421184689
:1012A000FFF7BCFFBB881B0A9BB2DBB23B73BB885A
:1012B000DBB27B733B881B0A9BB2DBB2BB733B8800
:1012C000DBB2FB732B20FFF775FF07F10C03042142
:1012D0001846FFF7A3FF2C20FFF76CFF00BF143761
:1012E000BD4690BD80B500AF002240210C4802F001
:1012F000F0FC0A2001F064FC00220821084802F0FA
:10130000E8FC0A2001F05CFC01224021044802F0C4
:10131000E0FC01220821024802F0DBFC00BF80BD96
:101320000008014080B500AF01224021024802F0D0
:10133000D0FC00BF80BD00BF0008014080B500AFF9
:10134000FFF7F0FFFFF7CEFF0120FFF733FF0A2082
:1013500001F036FCCB20FFF72DFF3920FFF744FFCB
:101360002C20FFF741FF0020FFF73EFF3420FFF75E
:101370003BFF0220FFF738FFCF20FFF71BFF0020C5
:10138000FFF732FFC120FFF72FFF3020FFF72CFFC0
:10139000E820FFF70FFF8520FFF726FF0020FFF76B
:1013A00023FF7820FFF720FFEA20FFF703FF00204C
:1013B000FFF71AFF0020FFF717FFED20FFF7FAFEF7
:1013C0006420FFF711FF0320FFF70EFF1220FFF745
:1013D0000BFF8120FFF708FFF720FFF7EBFE20202F
:1013E000FFF702FFC020FFF7E5FE2320FFF7FCFE1A
:1013F000C120FFF7DFFE1020FFF7F6FEC520FFF744
:10140000D9FE3E20FFF7F0FE2820FFF7EDFEC720B3
:10141000FFF7D0FE8620FFF7E7FE3620FFF7CAFE73
:101420004820FFF7E1FE3A20FFF7C4FE5520FFF702
:10143000DBFEB120FFF7BEFE0020FFF7D5FE18202F
:10144000FFF7D2FEB620FFF7B5FE0820FFF7CCFE6F
:101450008220FFF7C9FE2720FFF7C6FEF220FFF724
:10146000A9FE0020FFF7C0FE2620FFF7A3FE012003
:10147000FFF7BAFEE020FFF79DFE0F20FFF7B4FE56
:101480003120FFF7B1FE2B20FFF7AEFE0C20FFF757
:10149000ABFE0E20FFF7A8FE0820FFF7A5FE4E20AA
:1014A000FFF7A2FEF120FFF79FFE3720FFF79CFE1B
:1014B0000720FFF799FE1020FFF796FE0320FFF7A5
:1014C00093FE0E20FFF790FE0920FFF78DFE00200F
:1014D000FFF78AFEE120FFF76DFE0020FFF784FE94
:1014E0000E20FFF781FE1420FFF77EFE0320FFF79A
:1014F0007BFE1120FFF778FE0720FFF775FE3120F5
:10150000FFF772FEC120FFF76FFE4820FFF76CFE69
:101510000820FFF769FE0F20FFF766FE0C20FFF79B
:1015200063FE3120FFF760FE3620FFF75DFE0F20DF
:10153000FFF75AFE1120FFF73DFE642001F040FB4B
:101540002920FFF737FE002000F002F800BF80BD21
:1015500080B582B000AF0346FB713620FFF72AFE4C
:10156000012001F02DFBFB79032B37D801A252F8A3
:1015700023F000BF851500089B150008B115000871
:10158000C71500084820FFF72FFE174BF0221A80DE
:10159000164B4FF4A0721A8021E02820FFF724FE9A
:1015A000114B4FF4A0721A80104BF0221A8016E0F3
:1015B0008820FFF719FE0C4BF0221A800B4B4FF4DA
:1015C000A0721A800BE0E820FFF70EFE064B4FF4E6
:1015D000A0721A80054BF0221A8000E000BF00BF05
:1015E0000837BD4680BD00BF02000020000000207B
:1015F0002DE9F0438DB000AF03463960FB806B46A8
:101600001E460023FB623B685B00B3F5FA7F02D203
:101610003B68FB6202E04FF4FA73FB620122102187
:101620003E4802F056FB002208213C4802F051FBE4
:10163000FB881B0A9BB287F82330F96A0B46013BF3
:10164000FB610023884699464FF000024FF00003EB
:101650004FEAC90343EA58734FEAC80200230C4615
:101660001D464FF000024FF00003EB0043EA5473B5
:10167000E200CB1DDB08DB00ADEB030D6B46003356
:10168000BB610023BB620EE0BA69BB6A134497F8E2
:1016900023201A70BB6A0133FA88D1B2BA69D154D7
:1016A000BB6A0233BB62BA6AFB6A9A42ECD33B68FC
:1016B0005B007B617A69FB6AB2FBF3F33B617B6998
:1016C000FA6AB3FBF2F2F96A01FB02F29B1AFB60C1
:1016D0003B69002B10D000237B6209E0FB6A9AB2C1
:1016E0000A23B9690E4803F0F3FC7B6A01337B627D
:1016F0007A6A3B699A42F1D3FB689AB20A23B969C4
:10170000074803F0E5FC01220821044802F0E1FA51
:10171000B54600BF3437BD46BDE8F0830008014040
:101720007C02002080B582B000AF0346FB800E4BE8
:101730001B889AB20D4B1B889BB200210020FFF73B
:1017400089FD094B1B889BB21A46084B1B889BB22C
:1017500002FB03F31A46FB8811461846FFF748FFC1
:1017600000BF0837BD4680BD0200002000000020F9
:1017700080B586B000AF0346FB800B46BB801346A6
:101780007B802C4B1B889BB2FA889A424DD22A4B05
:101790001B889BB2BA889A4247D2FB881B0A9BB22D
:1017A000DBB23B75FB88DBB27B75FB8801331B1218
:1017B000DBB2BB75FB88DBB20133DBB2FB75BB88E8
:1017C0001B0A9BB2DBB23B74BB88DBB27B74BB8869
:1017D00001331B12DBB2BB74BB88DBB20133DBB25B
:1017E000FB747B881B0A9BB2DBB23B737B88DBB24A
:1017F0007B732A20FFF7DEFC07F11403042118464F
:10180000FFF70CFD2B20FFF7D5FC07F11003042197
:101810001846FFF703FD2C20FFF7CCFC07F10C0363
:1018200002211846FFF7FAFC00E000BF1837BD465A
:1018300080BD00BF020000200000002090B583B0F2
:1018400000AF0446084611461A462346FB8003466D
:10185000BB800B467B8013463B80244B1B889BB28E
:10186000FA889A423DD2224B1B889BB2BA889A4290
:1018700037D2FA887B8813441C4A128892B293426A
:1018800005DD1A4B1B889AB2FB88D31A7B80BA8875
:101890003B881344164A128892B2934205DD144BDA
:1018A0001B889AB2BB88D31A3B80FA887B88134482
:1018B0009BB2013B9CB2BA883B8813449BB2013B6C
:1018C0009BB2B988F8882246FFF7C4FC3B887A8827
:1018D00002FB03F31A463B8B11461846FFF788FEBE
:1018E00000E000BF0C37BD4690BD00BF02000020E5
:1018F0000000002080B586B002AF0346FB71FB7983
:1019000023F00F03FB73FB791B01BB73FB7B43F0DD
:101910000C03DBB23B72FB7B43F00803DBB27B7250
:10192000BB7B43F00C03DBB2BB72BB7B43F0080311
:10193000DBB2FB7207F108026423009304234E21FB
:10194000034802F023FB00BF1037BD4680BD00BF37
:101950002802002080B586B002AF0346FB71FB79F8
:1019600023F00F03FB73FB791B01BB73FB7B43F07D
:101970000D03DBB23B72FB7B43F00903DBB27B72EE
:10198000BB7B43F00D03DBB2BB72BB7B43F00903AF
:10199000DBB2FB7207F108026423009304234E219B
:1019A000034802F0F3FA00BF1037BD4680BD00BF08
:1019B0002802002080B500AF0120FFF79BFF0A201E
:1019C00001F0FEF800BF80BD80B582B000AF786046
:1019D00039607B68002B03D07B68012B05D009E0C0
:1019E0003B6843F080033B6004E03B6843F0C00386
:1019F0003B6000BF3B68DBB21846FFF77BFF00BFD0
:101A00000837BD4680BD80B500AF322001F0D8F860
:101A10003020FFF76FFF052001F0D2F83020FFF7EC
:101A200069FF012001F0CCF83020FFF763FF0A20A6
:101A300001F0C6F82020FFF75DFF0A2001F0C0F892
:101A40002820FFF757FF012001F0BAF80820FFF720
:101A500051FF012001F0B4F80120FFF74BFF0120F6
:101A600001F0AEF8012001F0ABF80620FFF742FFCD
:101A7000012001F0A5F80C20FFF73CFF00BF80BD5E
:101A800080B582B000AF786006E07B685A1C7A604F
:101A90001B781846FFF75EFF7B681B78002BF4D19C
:101AA00000BF00BF0837BD4680BD000080B483B0D2
:101AB00000AF0346FB80084B1B6800225A6200BF40
:101AC000054B1B685A6AFB889A42F9D300BF00BFD6
:101AD0000C37BD4680BC70471803002080B588B025
:101AE00000AF78600023FB6007F1100300221A604A
:101AF0005A609A60DA6004210120FFF765FF786878
:101B0000FEF792FC02460B4607F10C00054905F072
:101B10006DFE07F10C031846FFF7B2FF00BF203738
:101B2000BD4680BD60B0000880B588B000AF786069
:101B30000023FB6007F1100300221A605A609A60CC
:101B4000DA6000210020FFF73FFF7868FEF76CFCA9
:101B500002460B4607F10C00054905F047FE07F168
:101B60000C031846FFF78CFF00BF2037BD4680BD31
:101B700068B0000880B588B000AF78600023FB60D3
:101B800007F1100300221A605A609A60DA60082197
:101B90000020FFF719FF7868FEF746FC02460B4667
:101BA00007F10C00054905F021FE07F10C0318466A
:101BB000FFF766FF00BF2037BD4680BD70B000084C
:101BC00080B586B000AF78600B467B8007F10803D4
:101BD00000221A605A609A60DA607B88BB60012339
:101BE000FB6002237B6107F108031946786801F066
:101BF000D5FE00BF1837BD4680BD80B586B000AFAA
:101C000078600B467B8007F1080300221A605A6057
:101C10009A60DA607B88BB600023FB6001233B6134
:101C200007F108031946786801F0B8FE00BF1837BD
:101C3000BD4680BD80B500AF02210D48FFF7C0FF53
:101C4000002202210A4802F044F844F25060FFF7F3
:101C50002DFF01220221064802F03BF81420FFF775
:101C600025FF02210248FFF7C8FF00BF80BD00BF6B
:101C70000008014080B582B000AF0023FB7128202E
:101C8000FFF714FF0221114802F00CF80346002B65
:101C90000ED15020FFF70AFF02210C4802F002F893
:101CA0000346002B02D00123FB7101E00023FB71EE
:101CB00000BF0221054801F0F5FF0346002BF8D1D3
:101CC000FB7918460837BD4680BD00BF00080140BB
:101CD00080B582B000AF0023BB7137E000BF0221A6
:101CE0001E4801F0DFFF0346002BF8D02820FFF745
:101CF000DDFE0221194801F0D5FF0346002B0ED16D
:101D0000BB79C3F10703012202FA03F35BB2DB43A1
:101D10005AB297F9073013405BB2FB710BE0BB7905
:101D2000C3F10703012202FA03F35AB297F907300D
:101D300013435BB2FB7100BF0221084801F0B2FF00
:101D40000346002BF8D0BB790133BB71BB79072B5D
:101D5000C4D9FB7918460837BD4680BD000801404C
:101D600080B592B002AF00F0C9FE00F06FF900F04C
:101D70000BFB00F0E3FA00F0C5F900F001FA00F007
:101D80002DFA00F061FA00F0AFFA944803F024FE57
:101D9000934801F011F8FFF736FE01210020FFF70C
:101DA00013FE9048FFF76CFE4FF47A7000F008FFC6
:101DB00003210120FFF708FE8B48FFF761FE4FF477
:101DC000FA7000F0FDFEFFF7F5FDFFF7B7FA4FF6EA
:101DD000FF70FFF7A7FC0320FFF7BAFB4FF6FF7376
:101DE0000193002300936E235A2280498048FFF715
:101DF0004DF94FF4FA7000F0E3FE4FF4FA7000F082
:101E0000DFFE40F2EF30FFF78DFC4FF4FC63282239
:101E100032213220FFF70CF84FF6FF70FFF782FCFB
:101E200000233B6207F1240300221A605A609A6083
:101E3000DA601A615A619A6100233B603B1D0022FF
:101E40001A605A609A60DA601A615A619A61694B45
:101E50001B681846FFF768FE674B1B681846FFF7BC
:101E600089FE664B1B781846FEF734FF034618467A
:101E7000FFF734FEFFF7DEFEFFF7FCFE03461A46CF
:101E80005F4B1A70FFF724FF03461A465D4B1A702A
:101E9000FFF71EFF03461A465B4B1A70FFF718FF49
:101EA00003461A46594B1A70FFF712FF03461A46AB
:101EB000574B1A70FFF70CFF03461A46554B1A8012
:101EC000524B1B781A46544B1A804E4B1B781A46BD
:101ED000524B1A80504B1B881846FEF7FBFE0346F8
:101EE000444A13604D4B1B881846FEF7F3FE034629
:101EF000414A13604FF47A7000F062FE3F4B1B784A
:101F00001A464749474805F071FC4FF6FF730193A5
:101F1000002300935023502234494248FFF7B6F87B
:101F2000354B1B681846FEF77FFA02460B463E49C2
:101F30003E4805F05BFC4FF6FF73019300230093CE
:101F40007823782229493948FFF7A0F8294B1B68E4
:101F50001846FEF769FA02460B463549354805F042
:101F600045FC4FF6FF730193002300932823A02222
:101F70001E493048FFF78AF8204B1A782E4B1A700A
:101F80001C4B1B681846FEF7FDFE0346DAB22B4BCE
:101F90001A70194B1B681846FEF7F4FE0346DAB2B6
:101FA000274B1A70254B1B781A46254B1B78194670
:101FB000214B1B7807F1200000930B46214905F0C7
:101FC00015FC07F12003202219461F4803F0C8FF23
:101FD0004FF4FA7000F0F4FD00BF4BE71803002047
:101FE000F801002078B0000888B00008D4B00008DC
:101FF00094B00008F8030020FC030020F401002046
:1020000000040020EC030020ED030020EE0300207C
:10201000EF030020F0030020F4030020F20300206F
:10202000A0B0000804040020ACB000082404002084
:10203000BCB0000844040020030400200104002078
:1020400002040020C8B000086003002080B594B0EE
:1020500000AF07F1280328220021184605F029FCCB
:1020600007F1140300221A605A609A60DA601A615C
:102070003B1D00221A605A609A60DA600123BB623D
:102080004FF48033FB6200233B630123BB630223D5
:102090007B644FF48033BB644FF4C013FB6407F1DF
:1020A0002803184602F0CAFA0346002B01D000F0BC
:1020B00005FA0F237B610223BB610023FB614FF410
:1020C00080633B6200237B6207F114030221184600
:1020D00002F036FD0346002B01D000F0EFF9022399
:1020E0007B604FF40043FB603B1D184602F0B6FED8
:1020F0000346002B01D000F0E1F900BF5037BD4688
:1021000080BD000080B584B000AF3B1D00221A6086
:102110005A609A60184B194A1A60174B00229A604D
:10212000154B00221A73144B00221A75124B4FF4F0
:102130006022DA61104B00225A600F4B01221A61B3
:102140000D4800F061FD0346002B01D000F0B6F908
:1021500000237B600123BB600023FB603B1D19460D
:10216000054800F0D7FE0346002B01D000F0A6F989
:1021700000BF1037BD4680BDF8010020002401409B
:1021800080B500AF124B134A1A60114B124A5A60C5
:102190000F4B00229A600E4B0022DA600C4B4FF47A
:1021A00080421A610A4B00225A61094B00229A614F
:1021B000074B0022DA61064B00221A62044801F044
:1021C000A1FD0346002B01D000F078F900BF80BDCF
:1021D0002802002000540040A086010080B500AF16
:1021E000174B184A1A60164B4FF482725A60144B00
:1021F00000229A60124B0022DA60114B00221A6111
:102200000F4B00225A610E4B4FF400729A610C4B37
:102210000822DA610A4B00221A62094B00225A6234
:10222000074B00229A62064B0A22DA62044802F047
:10223000CBFE0346002B01D000F040F900BF80BD6B
:102240007C0200200030014080B586B000AF07F16D
:10225000080300221A605A609A60DA603B46002246
:102260001A605A601E4B1F4A1A601D4B3F225A606B
:102270001B4B00229A601A4B4FF6FF72DA60184B24
:1022800000221A61164B00225A61154B00229A61F6
:10229000134803F052FB0346002B01D000F00EF967
:1022A0004FF48053BB6007F1080319460C4803F054
:1022B000DDFB0346002B01D000F000F900233B605A
:1022C00000237B603B461946054803F09BFD03460F
:1022D000002B01D000F0F2F800BF1837BD4680BDDA
:1022E00018030020002C014080B500AF114B124AAA
:1022F0001A60104B4FF4E1325A600E4B00229A6084
:102300000C4B0022DA600B4B00221A61094B0C22A5
:102310005A61084B00229A61064B0022DA61054897
:1023200003F0CEFD0346002B01D000F0C7F800BF3C
:1023300080BD00BF600300200038014080B582B03E
:1023400000AF104B5B690F4A43F0010353610D4B23
:102350005B6903F001037B607B68002200210D2094
:1023600001F043F80D2001F05CF8002200210E205E
:1023700001F03BF80E2001F054F800BF0837BD46CD
:1023800080BD00BF0010024080B588B000AF07F1EB
:10239000100300221A605A609A60DA60444B9B690D
:1023A000434A43F010039361414B9B6903F01003D0
:1023B000FB60FB683E4B9B693D4A43F02003936101
:1023C0003B4B9B6903F02003BB60BB68384B9B69A8
:1023D000374A43F004039361354B9B6903F00403D0
:1023E0007B607B68324B9B69314A43F00803936101
:1023F0002F4B9B6903F008033B603B6801220221DD
:102400002C4801F066FC002241F65841294801F0B1
:1024100060FC00220421284801F05BFC02233B61A0
:1024200001237B610123BB610223FB6107F11003E0
:102430001946204801F0B2FA41F608433B610123F6
:102440007B610023BB610223FB6107F11003194686
:10245000184801F0A3FA50233B6101237B6100235C
:10246000BB610323FB6107F110031946114801F01A
:1024700095FA04233B6101237B610023BB610223A6
:10248000FB6107F1100319460B4801F087FA4FF47E
:1024900040733B6100237B610023BB6107F11003A4
:1024A0001946044801F07AFA00BF2037BD4680BDC6
:1024B0000010024000080140000C014080B400AF51
:1024C00072B600BF00BFFDE780B485B000AF154B0A
:1024D0009B69144A43F001039361124B9B6903F01B
:1024E0000103BB60BB680F4BDB690E4A43F08053AE
:1024F000D3610C4BDB6903F080537B607B680A4B34
:102500005B68FB60FB6823F0E063FB60FB6843F003
:102510000073FB60044AFB68536000BF1437BD467C
:1025200080BC7047001002400000014080B588B0B8
:1025300000AF786007F1100300221A605A609A60B9
:10254000DA607B681B68144A934221D1134B9B6964
:10255000124A43F400739361104B9B6903F40073B8
:10256000FB60FB680D4B9B690C4A43F004039361CD
:102570000A4B9B6903F00403BB60BB6801233B610A
:1025800003237B6107F110031946054801F006FAA1
:1025900000BF2037BD4680BD00240140001002402E
:1025A0000008014080B58AB000AF786007F11403DD
:1025B00000221A605A609A60DA607B681B681D4AC4
:1025C000934232D11C4B9B691B4A43F00803936131
:1025D000194B9B6903F008033B613B694FF440735F
:1025E0007B611223BB6103233B6207F1140319468D
:1025F000124801F0D3F9124B5B687B627B6A43F0AF
:10260000E0637B627B6A43F002037B620C4A7B6A75
:102610005360094BDB69084A43F40013D361064B4E
:10262000DB6903F40013FB60FB6800BF2837BD467D
:1026300080BD00BF0054004000100240000C01406B
:102640000000014080B588B000AF786007F110034A
:1026500000221A605A609A60DA607B681B682C4A14
:10266000934251D12B4B9B692A4A43F48053936187
:10267000284B9B6903F48053FB60FB68254B9B69E7
:10268000244A43F004039361224B9B6903F0040343
:10269000BB60BB68A0233B6102237B610323FB611A
:1026A00007F1100319461C4801F078F91B4B1C4A2E
:1026B0001A601A4B10225A60184B00229A60174B6E
:1026C0008022DA60154B00221A61144B00225A61F5
:1026D000124B00229A61114B0022DA610F4800F080
:1026E000BBFE0346002B01D0FFF7E8FE7B680B4AD8
:1026F0009A640A4A7B68536200220321232000F077
:1027000074FE232000F08DFE00BF2037BD4680BD43
:10271000003001400010024000080140D4020020B7
:102720003000024080B485B000AF78607B681B68E1
:10273000094A93420BD1094B9B69084A43F4006351
:102740009361064B9B6903F40063FB60FB6800BF69
:102750001437BD4680BC7047002C01400010024079
:1027600080B58AB000AF786007F1140300221A60C8
:102770005A609A60DA607B681B68394A93426BD171
:10278000384B9B69374A43F480439361354B9B69CF
:1027900003F480433B613B69324B9B69314A43F010
:1027A000080393612F4B9B6903F00803FB60FB68F0
:1027B00040237B610223BB6101233B6207F11403C9
:1027C0001946294801F0EAF880237B610023BB61A8
:1027D0000123FB6107F114031946234801F0DEF8D9
:1027E000224B5B687B627B6A43F0E0637B627B6ABF
:1027F00043F004037B621D4A7B6A53601C4B1D4AF5
:102800001A601B4B10225A60194B00229A60184B19
:102810008022DA60164B00221A61154B00225A61A1
:10282000134B00229A61124B0022DA61104800F02B
:1028300013FE0346002B01D0FFF740FE7B680C4AD5
:102840009A630B4A7B68536200220021252000F026
:10285000CCFD252000F0E5FD00BF2837BD4680BD3A
:102860000038014000100240000C0140000001400F
:10287000A80300204400024080B400AF00BFFDE781
:1028800080B400AF00BFFDE780B400AF00BFFDE73C
:1028900080B400AF00BFFDE780B400AF00BFFDE72C
:1028A00080B400AF00BFBD4680BC704780B400AFAD
:1028B00000BFBD4680BC704780B400AF00BFBD46BE
:1028C00080BC704780B500AF00F05EF900BF80BDEE
:1028D00080B500AF024800F02DFF00BF80BD00BFF3
:1028E000D402002080B500AF024800F023FF00BFF3
:1028F00080BD00BFA803002080B500AF024802F0F1
:10290000DDFD00BF80BD00BF7C02002080B500AFB0
:10291000024803F05BFB00BF80BD00BF60030020E6
:1029200080B400AF01231846BD4680BC704780B517
:1029300082B000AF7860396005F00EF803461622C9
:102940001A604FF0FF3318460837BD4680BD80B58A
:1029500082B000AF78604FF0FF317868FFF7E7FF93
:1029600000BFFDE780B586B000AFF860B9607A605F
:1029700000237B610AE0AFF300800146BB685A1C6C
:10298000BA60CAB21A707B6901337B617A697B686D
:102990009A42F0DB7B6818461837BD4680BD80B58B
:1029A00086B000AFF860B9607A6000237B6109E00F
:1029B000BB685A1CBA601B781846AFF300807B696D
:1029C00001337B617A697B689A42F1DB7B68184648
:1029D0001837BD4680BD80B483B000AF78604FF03B
:1029E000FF3318460C37BD4680BC704780B483B0B7
:1029F00000AF786039603B684FF400525A600023A2
:102A000018460C37BD4680BC704780B483B000AF19
:102A10007860012318460C37BD4680BC704780B4EF
:102A200085B000AFF860B9607A60002318461437AB
:102A3000BD4680BC7047000080B586B000AF7860AE
:102A4000144A154BD31A7B617B693B61134B1B689E
:102A5000002B02D1114B124A1A60104B1A687B6886
:102A600013443A699A4207D204F076FF03460C22D7
:102A70001A604FF0FF3309E0084B1B68FB60074BFF
:102A80001A687B681344054A1360FB6818461837B8
:102A9000BD4680BD005000200004000064040020FA
:102AA000B805002080B400AF00BFBD4680BC7047B1
:102AB000FFF7F8FF0B480C490C4A002302E0D458FA
:102AC000C4500433C4188C42F9D3094A094C00237A
:102AD00001E013600432A242FBD304F043FFFFF78E
:102AE0003FF9704700000020D801002080C6000890
:102AF000D8010020B8050020FEE7000080B500AF37
:102B0000084B1B68074A43F010031360032000F0D2
:102B100061FC0F2000F008F8FFF7D6FC00231846F0
:102B200080BD00BF0020024080B582B000AF786059
:102B3000124B1A68124B1B7819464FF47A73B3FB89
:102B4000F1F3B2FBF3F3184600F079FC0346002BD7
:102B500001D001230EE07B680F2B0AD80022796890
:102B60004FF0FF3000F041FC064A7B681360002301
:102B700000E0012318460837BD4680BD0400002050
:102B80000C0000200800002080B400AF054B1B782B
:102B90001A46054B1B681344034A136000BFBD4629
:102BA00080BC70470C0000206804002080B400AF97
:102BB000024B1B681846BD4680BC70476804002065
:102BC00080B584B000AF7860FFF7F0FFB8607B6835
:102BD000FB60FB68B3F1FF3F05D00A4B1B781A4638
:102BE000FB681344FB6000BFFFF7E0FF0246BB68D1
:102BF000D31AFA689A42F7D800BF00BF1037BD4613
:102C000080BD00BF0C00002080B586B000AF7860AA
:102C10000023FB7500233B610023BB600023FB60A6
:102C20007B68002B01D10123BEE07B689B68002BF1
:102C30007B689B6A002B09D17B680022DA627B6883
:102C4000002283F824207868FFF770FC786800F091
:102C5000B3FA0346FB757B689B6A03F01003002BF5
:102C600040F09980FB7D002B40F095807B689B6A4B
:102C700023F4885323F0020343F002027B689A6234
:102C80007B685A687B68DB691A437B681B7B5B0047
:102C90001343BA681343BB607B689B68B3F5807FBE
:102CA00003D07B689B68012B02D14FF4807300E056
:102CB00000233A6913433B617B681B7D012B19D1CB
:102CC0007B681B7B002B09D17B689B69013B5A0306
:102CD0003B69134343F400633B610BE07B689B6AF1
:102CE00043F020027B689A627B68DB6A43F0010252
:102CF0007B68DA627B681B685B6823F469417B68E8
:102D00001B683A690A435A607B681B689A68284BBB
:102D100013407A681268B9680B4393607B689B68BC
:102D2000B3F5807F03D07B689B68012B04D17B685F
:102D30001B69013B1B05FB607B681B68DB6A23F496
:102D400070017B681B68FA680A43DA627B681B685B
:102D50009A68184B1340BA689A420BD17B680022DC
:102D6000DA627B689B6A23F0030343F001027B680D
:102D70009A6218E07B689B6A23F0120343F010020A
:102D80007B689A627B68DB6A43F001027B68DA62E7
:102D90000123FB7507E07B689B6A43F010027B68A8
:102DA0009A620123FB75FB7D18461837BD4680BD2E
:102DB000FDF7E1FFFE0E1FFF80B584B000AF786025
:102DC0000023FB737B6893F82430012B01D102238D
:102DD00098E07B68012283F82420786800F092F95B
:102DE0000346FB73FB7B002B40F087807B689B6A6C
:102DF00023F4407323F0010343F480727B689A62EA
:102E00007B681B68414A934205D1414B5B6803F4E0
:102E10007023002B15D17B689B6A23F480127B689A
:102E20009A627B681B685B6803F48063002B26D082
:102E30007B689B6A23F4405343F480527B689A6218
:102E40001DE07B689B6A43F480127B689A627B6812
:102E50001B682F4A934204D07B681B682B4A93421D
:102E60000DD12B4B5B6803F48063002B07D07B688C
:102E70009B6A23F4405343F480527B689A627B68D8
:102E80009B6A03F48053002B06D07B68DB6A23F037
:102E900006027B68DA6202E07B680022DA627B6805
:102EA000002283F824207B681B686FF002021A60FE
:102EB0007B681B689B6803F46023B3F5602F13D114
:102EC0007B681B68114A934205D1114B5B6803F480
:102ED0007023002B08D17B681B689A687B681B688D
:102EE00042F4A0029A600CE07B681B689A687B68D9
:102EF0001B6842F480129A6003E07B68002283F82A
:102F00002420FB7B18461037BD4680BD00280140B9
:102F10000024014080B485B000AF786039600023A0
:102F2000FB730023BB607B6893F82430012B01D135
:102F30000223DCE07B68012283F824203B685B6885
:102F4000062B1CD87B681B68596B3B685A68134674
:102F50009B001344053B1F2202FA03F3DB43194095
:102F60003B6818683B685A6813469B001344053B4E
:102F700000FA03F27B681B680A435A633CE03B6833
:102F80005B680C2B1CD87B681B68196B3B685A6804
:102F900013469B001344233B1F2202FA03F3DB4337
:102FA00019403B6818683B685A6813469B001344F5
:102FB000233B00FA03F27B681B680A431A631BE099
:102FC0007B681B68D96A3B685A6813469B001344A8
:102FD000413B1F2202FA03F3DB4319403B681868A8
:102FE0003B685A6813469B001344413B00FA03F2C6
:102FF0007B681B680A43DA623B681B68092B1CD993
:103000007B681B68D9683B681A6813465B001344E9
:103010001E3B072202FA03F3DB4319403B68986822
:103020003B681A6813465B0013441E3B00FA03F228
:103030007B681B680A43DA6019E07B681B681969C2
:103040003B681A6813465B001344072202FA03F335
:10305000DB4319403B6898683B681A6813465B007D
:10306000134400FA03F27B681B680A431A613B6849
:103070001B68102B03D03B681B68112B32D17B6877
:103080001B681D4A934225D17B681B689B6803F42B
:103090000003002B26D17B681B689A687B681B683D
:1030A00042F400029A603B681B68102B1AD1134B44
:1030B0001B68134AA2FB03239A0C13469B0013447C
:1030C0005B00BB6002E0BB68013BBB60BB68002BE0
:1030D000F9D107E07B689B6A43F020027B689A6223
:1030E0000123FB737B68002283F82420FB7B1846B6
:1030F0001437BD4680BC7047002401400400002006
:1031000083DE1B4380B584B000AF78600023FB6092
:103110000023BB607B681B689B6803F00103012BE5
:1031200040D07B681B689A687B681B6842F001028C
:103130009A601F4B1B681F4AA2FB03239B0CBB60BA
:1031400002E0BB68013BBB60BB68002BF9D1FFF715
:103150002DFDF8601FE0FFF729FD0246FB68D31A3A
:10316000022B18D97B681B689B6803F00103012BB5
:1031700011D07B689B6A43F010027B689A627B687F
:10318000DB6A43F001027B68DA627B68002283F825
:103190002420012307E07B681B689B6803F0010380
:1031A000012BD8D1002318461037BD4680BD00BF83
:1031B0000400002083DE1B4380B584B000AF78603C
:1031C0000023FB607B681B689B6803F00103012BF5
:1031D0002ED17B681B689A687B681B6822F001020D
:1031E0009A60FFF7E3FCF8601BE0FFF7DFFC0246A4
:1031F000FB68D31A022B14D97B681B689B6803F009
:103200000103012B0DD17B689B6A43F010027B68A0
:103210009A627B68DB6A43F001027B68DA62012311
:1032200007E07B681B689B6803F00103012BDCD07F
:10323000002318461037BD4680BD000080B485B01D
:1032400000AF78607B6803F00703FB600C4BDB6822
:10325000BB60BA684FF6FF031340BB60FB681A02FD
:10326000BB68134343F0BF6343F40033BB60044ABD
:10327000BB68D36000BF1437BD4680BC704700BF39
:1032800000ED00E080B400AF044BDB681B0A03F0E4
:1032900007031846BD4680BC704700BF00ED00E044
:1032A00080B483B000AF0346FB7197F90730002B61
:1032B0000BDBFB7903F01F02064997F907305B0926
:1032C000012000FA02F241F8232000BF0C37BD466E
:1032D00080BC704700E100E080B483B000AF0346DB
:1032E0003960FB7197F90730002B0ADB3B68DAB2D3
:1032F0000C4997F907301201D2B20B4483F800232E
:103300000AE03B68DAB20849FB7903F00F03043B9B
:103310001201D2B20B441A7600BF0C37BD4680BCF6
:10332000704700BF00E100E000ED00E080B489B02C
:1033300000AFF860B9607A60FB6803F00703FB61D7
:10334000FB69C3F10703042B28BF0423BB61FB699E
:103350000433062B02D9FB69033B00E000237B61A9
:103360004FF0FF32BB6902FA03F3DA43BB681A403D
:103370007B699A404FF0FF317B6901FA03F3D9432F
:103380007B680B40134318462437BD4680BC70470A
:1033900080B582B000AF78607B68013BB3F1807F7D
:1033A00001D301230FE00A4A7B68013B53600F21E0
:1033B0004FF0FF30FFF790FF054B00229A60044B5F
:1033C00007221A60002318460837BD4680BD00BF9B
:1033D00010E000E080B582B000AF78607868FFF759
:1033E0002DFF00BF0837BD4680BD80B586B000AF59
:1033F0000346B9607A60FB7300237B61FFF742FFED
:1034000078617A68B9687869FFF790FF024697F9A2
:103410000F3011461846FFF75FFF00BF1837BD4653
:1034200080BD80B582B000AF0346FB7197F90730CD
:103430001846FFF735FF00BF0837BD4680BD80B591
:1034400082B000AF78607868FFF7A2FF03461846A5
:103450000837BD4680BD000080B485B000AF7860FD
:103460000023FB607B68002B01D1012343E07B68D4
:103470001B681A46224B1344224AA2FB03231B0952
:103480009A007B681A647B681F4ADA637B680222B1
:1034900083F821207B681B681B68FB60FB6823F4B2
:1034A0007F5323F03003FB607B685A687B689B681E
:1034B0001A437B68DB681A437B681B691A437B6885
:1034C0005B691A437B689B691A437B68DB6913431A
:1034D000FA681343FB607B681B68FA681A607B68B4
:1034E00000229A637B68012283F821207B680022F6
:1034F00083F82020002318461437BD4680BC70474F
:10350000F8FFFDBFCDCCCCCC0000024080B586B02A
:1035100000AFF860B9607A603B600023FB75FB6820
:1035200093F82030012B01D102234BE0FB680122EC
:1035300083F82020FB6893F82130DBB2012B3AD1CD
:10354000FB68022283F82120FB6800229A63FB6853
:103550001B681A68FB681B6822F001021A603B684E
:103560007A68B968F86800F0EBF9FB68DB6A002B51
:1035700008D0FB681B681A68FB681B6842F00E02E3
:103580001A600FE0FB681B681A68FB681B6822F072
:1035900004021A60FB681B681A68FB681B6842F02B
:1035A0000A021A60FB681B681A68FB681B6842F015
:1035B00001021A6005E0FB68002283F82020022344
:1035C000FB75FB7D18461837BD4680BD80B485B0BD
:1035D00000AF78600023FB737B6893F82130DBB287
:1035E000022B08D07B6804229A637B68002283F850
:1035F0002020012320E07B681B681A687B681B6819
:1036000022F00E021A607B681B681A687B681B68D0
:1036100022F001021A607B681A6C7B68DB6B012167
:1036200001FA02F25A607B68012283F821207B684C
:10363000002283F82020FB7B18461437BD4680BC4F
:103640007047000080B584B000AF78600023FB7342
:103650007B6893F82130DBB2022B05D07B68042213
:103660009A630123FB7351E07B681B681A687B68CF
:103670001B6822F00E021A607B681B681A687B6860
:103680001B6822F001021A607B681B68224A934281
:1036900029D07B681B68214A934222D07B681B6833
:1036A0001F4A93421AD07B681B681E4A934212D06D
:1036B0007B681B681C4A93420AD07B681B681B4AC4
:1036C000934202D14FF480130EE04FF080730BE071
:1036D0004FF4803308E04FF4805305E04FF48073DB
:1036E00002E0102300E00123114A53607B680122AD
:1036F00083F821207B68002283F820207B685B6BA5
:10370000002B03D07B685B6B78689847FB7B18467F
:103710001037BD4680BD00BF080002401C000240BB
:103720003000024044000240580002406C00024059
:103730000000024080B584B000AF78607B68DB6B2E
:103740001B68FB607B681B681B68BB607B681B6C2D
:1037500004229A40FB681340002B4FD0BB6803F053
:103760000403002B4AD07B681B681B6803F020030E
:10377000002B07D17B681B681A687B681B6822F0E6
:1037800004021A607B681B68664A934229D07B68F2
:103790001B68654A934222D07B681B68634A934248
:1037A0001AD07B681B68624A934212D07B681B6800
:1037B000604A93420AD07B681B685F4A934202D1F9
:1037C0004FF480030EE04FF080630BE04FF4802352
:1037D00008E04FF4804305E04FF4806302E04023AB
:1037E00000E00423554A53607B68DB6A002B00F03D
:1037F00094807B68DB6A786898478EE07B681B6CF6
:1038000002229A40FB681340002B56D0BB6803F09D
:103810000203002B51D07B681B681B6803F0200358
:10382000002B0BD17B681B681A687B681B6822F031
:103830000A021A607B68012283F821207B681B68DA
:10384000384A934229D07B681B68374A934222D07A
:103850007B681B68354A93421AD07B681B68344AE0
:10386000934212D07B681B68324A93420AD07B682D
:103870001B68314A934202D14FF400130EE04FF01F
:1038800000730BE04FF4003308E04FF4005305E001
:103890004FF4007302E0202300E00223274A536024
:1038A0007B68002283F820207B689B6A002B34D041
:1038B0007B689B6A786898472FE07B681B6C0822BE
:1038C0009A40FB681340002B28D0BB6803F0080324
:1038D000002B23D07B681B681A687B681B6822F06A
:1038E0000E021A607B681A6C7B68DB6B012101FA9F
:1038F00002F25A607B6801229A637B68012283F896
:1039000021207B68002283F820207B681B6B002B22
:1039100004D07B681B6B7868984700BF00BF1037E6
:10392000BD4680BD080002401C000240300002403D
:1039300044000240580002406C0002400000024077
:1039400080B485B000AFF860B9607A603B60FB6816
:103950001A6CFB68DB6B012101FA02F25A60FB680A
:103960001B683A685A60FB685B68102B08D1FB68DB
:103970001B687A689A60FB681B68BA68DA6007E0BF
:10398000FB681B68BA689A60FB681B687A68DA6033
:1039900000BF1437BD4680BC7047000080B48BB0B8
:1039A00000AF7860396000237B6200233B6269E1ED
:1039B00001227B6A02FA03F3FB613B681B68FA6928
:1039C0001340BB61BA69FB699A4240F058813B6879
:1039D0005B689A4A93425ED0984A934275D8984A57
:1039E000934258D0964A93426FD8964A934252D007
:1039F000944A934269D8944A93424CD0924A934253
:103A000063D8924A934246D0904A93425DD8122B93
:103A10002AD8122B59D801A252F823F0973A00085D
:103A2000713A0008833A0008C53A0008CB3A00080A
:103A3000CB3A0008CB3A0008CB3A0008CB3A000852
:103A4000CB3A0008CB3A0008CB3A0008CB3A000842
:103A5000CB3A0008CB3A0008CB3A0008CB3A000832
:103A6000793A00088D3A0008794A934213D02CE045
:103A70003B68DB683B6229E03B68DB6804333B6200
:103A800024E03B68DB6808333B621FE03B68DB688F
:103A90000C333B621AE03B689B68002B02D1042385
:103AA0003B6213E03B689B68012B05D108233B6216
:103AB0007B68FA691A6109E008233B627B68FA694E
:103AC0005A6103E000233B6200E000BFBB69FF2BAB
:103AD00001D87B6801E07B6804337B61BB69FF2B05
:103AE00002D87B6A9B0002E07B6A083B9B003B613B
:103AF0007B691A680F213B6901FA03F3DB431A4023
:103B0000396A3B6901FA03F31A437B691A603B681F
:103B10005B6803F08053002B00F0B1804D4B9B6934
:103B20004C4A43F0010393614A4B9B6903F0010344
:103B3000BB60BB68484A7B6A9B08023352F823305B
:103B4000FB607B6A03F003039B000F2202FA03F37E
:103B5000DB43FA681340FB607B68404A934213D012
:103B60007B683F4A93420DD07B683E4A934207D020
:103B70007B683D4A934201D1032306E0042304E01D
:103B8000022302E0012300E000237A6A02F003022C
:103B900092009340FA681343FB602F497B6A9B08AD
:103BA0000233FA6841F823203B685B6803F4801312
:103BB000002B06D02D4B9A682C49BB6913438B60B0
:103BC00006E02A4B9A68BB69DB43284913408B60A7
:103BD0003B685B6803F40013002B06D0234BDA68C4
:103BE0002249BB691343CB6006E0204BDA68BB690E
:103BF000DB431E491340CB603B685B6803F4003332
:103C0000002B06D0194B5A681849BB6913434B6007
:103C100006E0164B5A68BB69DB43144913404B60FE
:103C20003B685B6803F48033002B21D00F4B1A688C
:103C30000E49BB6913430B6021E000BF0000321046
:103C400000003110000022100000211000001210AE
:103C50000000111000100240000001400008014067
:103C6000000C01400010014000140140000401401C
:103C70000B4B1A68BB69DB43094913400B607B6A35
:103C800001337B623B681A687B6A22FA03F3002BDC
:103C90007FF48EAE00BF00BF2C37BD4680BC70479E
:103CA0000004014080B485B000AF78600B467B8093
:103CB0007B689A687B881340002B02D00123FB733A
:103CC00001E00023FB73FB7B18461437BD4680BC24
:103CD000704780B483B000AF78600B467B8013469A
:103CE0007B707B78002B03D07A887B681A6103E0B5
:103CF0007B881A047B681A6100BF0C37BD4680BC04
:103D00007047000080B584B000AF78607B68002BFE
:103D100001D101232BE17B6893F83D30DBB2002B0E
:103D200006D17B68002283F83C207868FEF73AFCD5
:103D30007B68242283F83D207B681B681A687B68B7
:103D40001B6822F001021A607B681B681A687B6896
:103D50001B6842F400421A607B681B681A687B6823
:103D60001B6822F400421A6001F032F8F8607B68A8
:103D70005B68814A934207D8FB68804A934294BFAC
:103D800001230023DBB206E0FB687D4A934294BF27
:103D900001230023DBB2002B01D00123E7E0FB6805
:103DA000784AA2FB03239B0CBB607B681B685B68A3
:103DB00023F03F017B681B68BA680A435A607B683E
:103DC0001B681B6A23F03F017B685B686A4A934269
:103DD00002D8BB68013309E0BB684FF4967202FB5E
:103DE00003F3694AA2FB03239B0901337A68126833
:103DF0000B4313627B681B68DB6923F44F4222F09C
:103E0000FF027B685B685C498B4219D8FB68591ECE
:103E10007B685B685B00B1FBF3F3591C40F6FC73F5
:103E20000B40002B0AD0FB68591E7B685B685B0067
:103E3000B1FBF3F30133C3F30B0351E004234FE071
:103E40007B689B68002B11D1FB68581E7B68596802
:103E50000B465B000B44B0FBF3F30133C3F30B03DE
:103E6000002B0CBF01230023DBB212E0FB68581EBD
:103E70007B6859680B469B000B4499000B44B0FBD0
:103E8000F3F30133C3F30B03002B0CBF0123002317
:103E9000DBB2002B01D0012322E07B689B68002B62
:103EA0000ED1FB68581E7B6859680B465B000B44BB
:103EB000B0FBF3F30133C3F30B0343F400430FE010
:103EC000FB68581E7B6859680B469B000B449900A1
:103ED0000B44B0FBF3F30133C3F30B0343F4404350
:103EE000796809681343CB617B681B681B6823F002
:103EF000C0017B68DA697B681B6A1A437B681B68B0
:103F00000A431A607B681B689B6823F4034323F011
:103F1000FF037A6811697A68D26811437A68126877
:103F20000B4393607B681B68DB6823F0FF017B68B1
:103F30005A697B689B691A437B681B680A43DA608D
:103F40007B681B681A687B681B6842F001021A6074
:103F50007B6800221A647B68202283F83D207B68FE
:103F600000221A637B68002283F83E200023184653
:103F70001037BD4680BD00BFA08601007F841E00B3
:103F8000FF083D0083DE1B43D34D621080B588B02F
:103F900002AFF8607A601A460B467B8113463B817C
:103FA000FEF704FE7861FB6893F83D30DBB2202B0E
:103FB00040F0E0807B690093192301227049F86882
:103FC00000F064F90346002B01D00223D3E0FB6824
:103FD00093F83C30012B01D10223CCE0FB68012295
:103FE00083F83C20FB681B681B6803F00103012B6E
:103FF00007D0FB681B681A68FB681B6842F0010267
:104000001A60FB681B681A68FB681B6822F4006270
:104010001A60FB68212283F83D20FB68102283F898
:104020003E20FB6800221A64FB687A685A62FB68CB
:104030003A895A85FB685B8D9AB2FB681A85FB68E2
:10404000504ADA6279897B693A6AF86800F09CF82C
:104050000346002B01D001238DE000233B61FB6868
:104060001B685B693B61FB681B689B693B613B6943
:1040700066E07A69396AF86800F022FA0346002B94
:104080000DD0FB681B6C042B07D1FB681B681A68FA
:10409000FB681B6842F400721A6001236BE0FB6846
:1040A0005B6A1A78FB681B681A61FB685B6A5A1CBA
:1040B000FB685A62FB685B8D9BB2013B9AB2FB685E
:1040C0005A85FB681B8D013B9AB2FB681A85FB6819
:1040D0001B685B6903F00403042B1BD1FB681B8D79
:1040E000002B17D0FB685B6A1A78FB681B681A61A3
:1040F000FB685B6A5A1CFB685A62FB685B8D9BB26B
:10410000013B9AB2FB685A85FB681B8D013B9AB252
:10411000FB681A857A69396AF86800F019FA03466B
:10412000002B0DD0FB681B6C042B07D1FB681B68B0
:104130001A68FB681B6842F400721A6001231AE0D7
:10414000FB681B8D002B94D1FB681B681A68FB6809
:104150001B6842F400721A60FB68202283F83D203D
:10416000FB68002283F83E20FB68002283F83C2095
:10417000002300E0022318461837BD4680BD00BF6B
:10418000020010000000FFFF80B588B002AFF860A9
:104190007A603B600B467B81FB68DB6A7B617B69F5
:1041A000082B06D07B69012B03D07B6913F5803F78
:1041B00008D1FB681B681A68FB681B6842F48072B0
:1041C0001A600BE0FB681B6B122B07D1FB681B68A6
:1041D0001A68FB681B6842F480721A603B6800939F
:1041E0007B6800224FF00111F86800F04FF8034699
:1041F000002B0DD0FB681B681B6803F48073B3F5BC
:10420000807F03D1FB684FF400721A64032335E00A
:10421000FB681B69B3F5804F08D17B89DBB21A4676
:10422000FB681B6802F0FE021A611BE07B89DB1150
:10423000DBB203F00603DBB263F00F03DAB2FB6814
:104240001B681A613B687A680E49F86800F098F8B4
:104250000346002B01D0012310E07B89DAB2FB6812
:104260001B681A613B687A680749F86800F088F8AB
:104270000346002B01D0012300E000231846183725
:10428000BD4680BD080001000200010080B584B079
:1042900000AFF860B9603B601346FB7148E03B68D3
:1042A000B3F1FF3F44D0FEF781FC0246BB69D31A4D
:1042B0003A689A4202D33B68002B39D1BB681B0C89
:1042C000DBB2012B0DD1FB681B685B69DA43BB686D
:1042D00013409BB2002B0CBF01230023DBB21A4614
:1042E0000CE0FB681B689B69DA43BB6813409BB218
:1042F000002B0CBF01230023DBB21A46FB799A4244
:1043000016D1FB6800221A63FB68202283F83D2047
:10431000FB68002283F83E20FB681B6C43F0200200
:10432000FB681A64FB68002283F83C20012323E029
:10433000BB681B0CDBB2012B0DD1FB681B685B69F2
:10434000DA43BB6813409BB2002B0CBF0123002350
:10435000DBB21A460CE0FB681B689B69DA43BB685A
:1043600013409BB2002B0CBF01230023DBB21A4683
:10437000FB799A4293D0002318461037BD4680BD82
:1043800080B584B000AFF860B9607A603B6071E0DE
:10439000FB681B685B6903F48063B3F5806F23D10E
:1043A000FB681B681A68FB681B6842F400721A609D
:1043B000FB681B686FF480625A61FB6800221A6315
:1043C000FB68202283F83D20FB68002283F83E2012
:1043D000FB681B6C43F00402FB681A64FB68002254
:1043E00083F83C20012367E07B68B3F1FF3F41D0B5
:1043F000FEF7DCFB02463B68D31A7A689A4202D386
:104400007B68002B36D1BB681B0CDBB2012B0CD1B7
:10441000FB681B685B69DA43BB6813409BB2002BE7
:1044200014BF01230023DBB20BE0FB681B689B6910
:10443000DA43BB6813409BB2002B14BF0123002357
:10444000DBB2002B16D0FB6800221A63FB68202227
:1044500083F83D20FB68002283F83E20FB681B6C3C
:1044600043F02002FB681A64FB68002283F83C20BA
:10447000012321E0BB681B0CDBB2012B0CD1FB68D4
:104480001B685B69DA43BB6813409BB2002B14BF07
:1044900001230023DBB20BE0FB681B689B69DA4356
:1044A000BB6813409BB2002B14BF01230023DBB277
:1044B000002B7FF46DAF002318461037BD4680BD3A
:1044C00080B584B000AFF860B9607A6034E0F86815
:1044D00000F086F80346002B01D0012334E0BB68CE
:1044E000B3F1FF3F28D0FEF761FB02467B68D31A89
:1044F000BA689A4202D3BB68002B1DD1FB681B68C7
:104500005B6903F08003802B16D0FB6800221A63DE
:10451000FB68202283F83D20FB68002283F83E20C0
:10452000FB681B6C43F02002FB681A64FB680022E6
:1045300083F83C20012307E0FB681B685B6903F0FC
:104540008003802BC3D1002318461037BD4680BDA1
:1045500080B584B000AFF860B9607A6034E0F86884
:1045600000F03EF80346002B01D0012334E0BB6885
:10457000B3F1FF3F28D0FEF719FB02467B68D31A40
:10458000BA689A4202D3BB68002B1DD1FB681B6836
:104590005B6903F00403042B16D0FB6800221A6346
:1045A000FB68202283F83D20FB68002283F83E2030
:1045B000FB681B6C43F02002FB681A64FB68002256
:1045C00083F83C20012307E0FB681B685B6903F06C
:1045D0000403042BC3D1002318461037BD4680BD09
:1045E00080B483B000AF78607B681B685B6903F4BC
:1045F0008063B3F5806F1BD17B681B686FF48062AA
:104600005A617B6800221A637B68202283F83D2070
:104610007B68002283F83E207B681B6C43F0040219
:104620007B681A647B68002283F83C20012300E049
:10463000002318460C37BD4680BC704780B586B055
:1046400000AF78607B68002B01D1012372E27B68A8
:104650001B6803F00103002B00F08780924B5B681E
:1046600003F00C03042B0CD08F4B5B6803F00C039E
:10467000082B12D18C4B5B6803F48033B3F5803F79
:104680000BD1894B1B6803F40033002B6CD07B6883
:104690005B68002B68D101234CE27B685B68B3F553
:1046A000803F06D1804B1B687F4A43F48033136000
:1046B0002EE07B685B68002B0CD17B4B1B687A4A31
:1046C00023F480331360784B1B68774A23F48023EC
:1046D00013601DE07B685B68B3F5A02F0CD1724BB3
:1046E0001B68714A43F4802313606F4B1B686E4A4A
:1046F00043F4803313600BE06B4B1B686A4A23F46E
:1047000080331360684B1B68674A23F4802313606F
:104710007B685B68002B13D0FEF748FA386108E02D
:10472000FEF744FA02463B69D31A642B01D90323EE
:1047300000E25D4B1B6803F40033002BF0D014E063
:10474000FEF734FA386108E0FEF730FA02463B69BA
:10475000D31A642B01D90323ECE1534B1B6803F4F8
:104760000033002BF0D100E000BF7B681B6803F032
:104770000203002B63D04C4B5B6803F00C03002B4F
:104780000BD0494B5B6803F00C03082B1CD1464B44
:104790005B6803F48033002B16D1434B1B6803F096
:1047A0000203002B05D07B681B69012B01D001237C
:1047B000C0E13D4B1B6823F0F8027B685B69DB00BE
:1047C000394913430B603AE07B681B69002B20D00A
:1047D000364B01221A60FEF7E9F9386108E0FEF76E
:1047E000E5F902463B69D31A022B01D90323A1E163
:1047F0002D4B1B6803F00203002BF0D02A4B1B68E3
:1048000023F0F8027B685B69DB00274913430B60E8
:1048100015E0264B00221A60FEF7C8F9386108E05F
:10482000FEF7C4F902463B69D31A022B01D90323D0
:1048300080E11D4B1B6803F00203002BF0D17B6865
:104840001B6803F00803002B3AD07B689B69002BA0
:1048500019D0174B01221A60FEF7A8F9386108E059
:10486000FEF7A4F902463B69D31A022B01D90323B0
:1048700060E10D4B5B6A03F00203002BF0D00120D6
:1048800000F0CEFA1CE00A4B00221A60FEF78EF907
:1048900038610FE0FEF78AF902463B69D31A022B12
:1048A00008D9032346E100BF001002400000424245
:1048B00080044242924B5B6A03F00203002BE9D171
:1048C0007B681B6803F00403002B00F0A680002324
:1048D000FB758B4BDB6903F08053002B0DD1884BAC
:1048E000DB69874A43F08053D361854BDB6903F072
:1048F0008053BB60BB680123FB75824B1B6803F4CC
:104900008073002B18D17F4B1B687E4A43F4807361
:104910001360FEF74BF9386108E0FEF747F90246ED
:104920003B69D31A642B01D9032303E1754B1B6840
:1049300003F48073002BF0D07B68DB68012B06D179
:104940006F4B1B6A6E4A43F0010313622DE07B68D4
:10495000DB68002B0CD16A4B1B6A694A23F0010308
:104960001362674B1B6A664A23F0040313621CE060
:104970007B68DB68052B0CD1614B1B6A604A43F0F6
:10498000040313625E4B1B6A5D4A43F0010313622A
:104990000BE05B4B1B6A5A4A23F001031362584B2E
:1049A0001B6A574A23F0040313627B68DB68002B01
:1049B00015D0FEF7FBF838610AE0FEF7F7F802467B
:1049C0003B69D31A41F28832934201D90323B1E003
:1049D0004B4B1B6A03F00203002BEED014E0FEF7F2
:1049E000E5F838610AE0FEF7E1F802463B69D31AC0
:1049F00041F28832934201D903239BE0404B1B6A6A
:104A000003F00203002BEED1FB7D012B05D13C4BC3
:104A1000DB693B4A23F08053D3617B68DB69002B61
:104A200000F08780364B5B6803F00C03082B61D0E5
:104A30007B68DB69022B46D1334B00221A60FEF7FC
:104A4000B5F8386108E0FEF7B1F802463B69D31AC1
:104A5000022B01D903236DE0294B1B6803F000737F
:104A6000002BF0D17B681B6AB3F5803F08D1244B43
:104A70005B6823F400327B689B68214913434B60D9
:104A80001F4B5B6823F474127B68196A7B685B6A4E
:104A90000B431B4913434B601B4B01221A60FEF76B
:104AA00085F8386108E0FEF781F802463B69D31AC1
:104AB000022B01D903233DE0114B1B6803F0007367
:104AC000002BF0D035E0104B00221A60FEF76EF894
:104AD000386108E0FEF76AF802463B69D31A022BF8
:104AE00001D9032326E0064B1B6803F00073002B5B
:104AF000F0D11EE07B68DB69012B07D1012319E0AF
:104B00000010024000700040600042420B4B5B68A6
:104B1000FB60FB6803F480327B681B6A9A4206D113
:104B2000FB6803F470127B685B6A9A4201D0012330
:104B300000E0002318461837BD4680BD0010024033
:104B400080B584B000AF786039607B68002B01D1FC
:104B50000123D0E06A4B1B6803F007033A689A42CE
:104B600010D9674B1B6823F0070265493B68134364
:104B70000B60634B1B6803F007033A689A4201D04D
:104B80000123B8E07B681B6803F00203002B20D0F0
:104B90007B681B6803F00403002B05D0594B5B684E
:104BA000584A43F4E06353607B681B6803F00803D2
:104BB000002B05D0534B5B68524A43F4605353605B
:104BC000504B5B6823F0F0027B689B684D491343B0
:104BD0004B607B681B6803F00103002B40D07B68AF
:104BE0005B68012B07D1474B1B6803F40033002B94
:104BF00015D101237FE07B685B68022B07D1414B15
:104C00001B6803F00073002B09D1012373E03D4BB7
:104C10001B6803F00203002B01D101236BE0394B29
:104C20005B6823F003027B685B68364913434B6083
:104C3000FDF7BCFFF8600AE0FDF7B8FF0246FB682D
:104C4000D31A41F28832934201D9032353E02D4B0A
:104C50005B6803F00C027B685B689B009A42EBD1B7
:104C6000274B1B6803F007033A689A4210D2244B83
:104C70001B6823F0070222493B6813430B60204B5B
:104C80001B6803F007033A689A4201D0012332E01F
:104C90007B681B6803F00403002B08D0194B5B688A
:104CA00023F4E0627B68DB68164913434B607B6842
:104CB0001B6803F00803002B09D0124B5B6823F438
:104CC00060527B681B69DB000E4913434B6000F0A8
:104CD00021F802460B4B5B681B0903F00F030A49DE
:104CE000CB5C22FA03F3094A1360094B1B68184690
:104CF000FDF71AFF002318461037BD4680BD00BFE0
:104D0000002002400010024018C2000804000020E9
:104D10000800002080B487B000AF0023FB600023B0
:104D2000BB6000237B6100237B6000233B611E4B43
:104D30005B68FB60FB6803F00C03042B02D0082BBC
:104D400003D027E0194B3B6127E0FB689B0C03F085
:104D50000F03174AD35C7B60FB6803F48033002B9E
:104D600010D0114B5B685B0C03F00103114AD35C5C
:104D7000BB607B680D4A03FB02F2BB68B2FBF3F336
:104D80007B6104E07B680C4A02FB03F37B617B6977
:104D90003B6102E0054B3B6100BF3B6918461C3795
:104DA000BD4680BC704700BF0010024000127A0070
:104DB00030C2000840C2000800093D0080B400AFC6
:104DC000024B1B681846BD4680BC7047040000209B
:104DD00080B500AFFFF7F2FF0246054B5B681B0A88
:104DE00003F007030349CB5C22FA03F3184680BDA6
:104DF0000010024028C2000880B500AFFFF7DEFFB8
:104E00000246054B5B68DB0A03F007030349CB5CF2
:104E100022FA03F3184680BD0010024028C20008A1
:104E200080B485B000AF78600A4B1B680A4AA2FBC9
:104E300003235B0A7A6802FB03F3FB6000BFFB6895
:104E40005A1EFA60002BF9D100BF00BF1437BD46CF
:104E500080BC704704000020D34D621080B586B03E
:104E600000AF786000233B610023FB607B681B6818
:104E700003F00103002B7DD00023FB754F4BDB6952
:104E800003F08053002B0DD14C4BDB694B4A43F0B0
:104E90008053D361494BDB6903F08053BB60BB682F
:104EA0000123FB75464B1B6803F48073002B18D15C
:104EB000434B1B68424A43F480731360FDF776FE50
:104EC000386108E0FDF772FE02463B69D31A642B95
:104ED00001D903236DE03A4B1B6803F48073002B68
:104EE000F0D0364B1B6A03F44073FB60FB68002B69
:104EF0002ED07B685B6803F44073FA689A4227D02F
:104F00002E4B1B6A23F44073FB602E4B01221A6068
:104F10002C4B00221A60294AFB681362FB6803F0DD
:104F20000103002B14D0FDF741FE38610AE0FDF7C4
:104F30003DFE02463B69D31A41F28832934201D9C1
:104F4000032336E01D4B1B6A03F00203002BEED057
:104F50001A4B1B6A23F440727B685B681749134342
:104F60000B62FB7D012B05D1144BDB69134A23F047
:104F70008053D3617B681B6803F00203002B08D0C9
:104F80000E4B5B6823F440427B689B680B491343DC
:104F90004B607B681B6803F01003002B08D0074BA5
:104FA0005B6823F480027B68DB68044913434B6031
:104FB000002318461837BD4680BD00BF00100240D0
:104FC000007000404004424280B582B000AF78607B
:104FD0007B68002B01D1012376E07B685B6A002BA4
:104FE00008D17B685B68B3F5827F09D07B680022BB
:104FF000DA6105E07B6800221A617B6800225A6151
:105000007B6800229A627B6893F85130DBB2002BF8
:1050100006D17B68002283F850207868FDF712FBE8
:105020007B68022283F851207B681B681A687B68C2
:105030001B6822F040021A607B685B6803F482728E
:105040007B689B6803F404431A437B68DB6803F4C2
:1050500000631A437B681B6903F002031A437B68F1
:105060005B6903F001031A437B689B6903F40073D7
:105070001A437B68DB6903F038031A437B681B6AB9
:1050800003F0800342EA03017B689B6A03F4005249
:105090007B681B680A431A607B689B691A0C7B68F3
:1050A0001B6802F004025A607B681B68DA697B683F
:1050B0001B6822F40062DA617B6800225A657B6813
:1050C000012283F85120002318460837BD4680BDD1
:1050D00080B588B000AFF860B9603B601346FB80D4
:1050E000FDF764FDF861FB887B83FB6893F8513022
:1050F000DBB2012B01D002232AE1BB68002B02D0D6
:10510000FB88002B01D1012322E1FB6893F850308A
:10511000012B01D102231BE1FB68012283F85020FF
:10512000FB68032283F85120FB6800225A65FB6864
:10513000BA681A63FB68FA889A86FB68FA88DA8686
:10514000FB6800229A63FB6800229A87FB680022B2
:10515000DA87FB6800225A64FB6800221A64FB6845
:105160009B68B3F5004F0FD1FB681B681A68FB689A
:105170001B6822F040021A60FB681B681A68FB6813
:105180001B6842F480421A60FB681B681B6803F0CE
:105190004003402B07D0FB681B681A68FB681B683C
:1051A00042F040021A60FB68DB68B3F5006F52D131
:1051B000FB685B68002B02D07B8B012B45D1FB6821
:1051C0001B6B1A88FB681B68DA60FB681B6B9A1CF8
:1051D000FB681A63FB68DB8E9BB2013B9AB2FB68EB
:1051E000DA8632E0FB681B689B6803F00203022B3F
:1051F00012D1FB681B6B1A88FB681B68DA60FB68BE
:105200001B6B9A1CFB681A63FB68DB8E9BB2013B2D
:105210009AB2FB68DA8618E0FDF7C8FC0246FB6923
:10522000D31A3A689A4203D83B68B3F1FF3F02D1E0
:105230003B68002B09D1FB68012283F85120FB68F1
:10524000002283F85020032382E0FB68DB8E9BB2B0
:10525000002BC7D153E0FB685B68002B02D07B8B2F
:10526000012B47D1FB681A6BFB681B680C33127863
:105270001A70FB681B6B5A1CFB681A63FB68DB8E99
:105280009BB2013B9AB2FB68DA8633E0FB681B688D
:105290009B6803F00203022B13D1FB681A6BFB68B7
:1052A0001B680C3312781A70FB681B6B5A1CFB6866
:1052B0001A63FB68DB8E9BB2013B9AB2FB68DA860D
:1052C00018E0FDF773FC0246FB69D31A3A689A426C
:1052D00003D83B68B3F1FF3F02D13B68002B09D1F3
:1052E000FB68012283F85120FB68002283F85020DC
:1052F00003232DE0FB68DB8E9BB2002BC6D1FA693D
:105300003968F86800F0E8FA0346002B02D0FB6821
:1053100020225A65FB689B68002B0AD100237B6121
:10532000FB681B68DB687B61FB681B689B687B61B3
:105330007B69FB68012283F85120FB68002283F817
:105340005020FB685B6D002B01D0012300E000239F
:1053500018462037BD4680BD80B584B000AFF860E8
:10536000B9601346FB80FB6893F85130DBB2012B28
:1053700001D0022397E0BB68002B02D0FB88002BF2
:1053800001D101238FE0FB6893F85030012B01D14C
:10539000022388E0FB68012283F85020FB68032287
:1053A00083F85120FB6800225A65FB68BA681A63CB
:1053B000FB68FA889A86FB68FA88DA86FB6800221E
:1053C0009A63FB6800225A64FB6800221A64FB6837
:1053D00000229A87FB680022DA87FB689B68B3F596
:1053E000004F0FD1FB681B681A68FB681B6822F02E
:1053F00040021A60FB681B681A68FB681B6842F46D
:1054000080421A60FB689B6C294ADA62FB689B6CDD
:10541000284A9A62FB689B6C274A1A63FB689B6C5C
:1054200000225A63FB68986CFB681B6B1946FB688B
:105430001B680C331A46FB68DB8E9BB2FEF766F8DE
:105440000346002B0BD0FB685B6D43F01002FB683A
:105450005A65FB68002283F85020012323E0FB6893
:105460001B681B6803F04003402B07D0FB681B68D8
:105470001A68FB681B6842F040021A60FB68002251
:1054800083F85020FB681B685A68FB681B6842F071
:1054900020025A60FB681B685A68FB681B6842F070
:1054A00002025A60002318461037BD4680BD00BF77
:1054B000435700089D5600085F57000880B588B024
:1054C00000AF78607B681B685B68FB617B681B686A
:1054D0009B68BB61BB6903F04003002B0ED1BB6925
:1054E00003F00103002B09D0FB6903F04003002BFC
:1054F00004D07B681B6C78689847B7E0BB6903F001
:105500000203002B09D0FB6903F08003002B04D0B9
:105510007B685B6C78689847A8E0BB6903F0200360
:10552000002B05D1BB6903F04003002B00F09E80E7
:10553000FB6903F02003002B00F09880BB6903F0A7
:105540004003002B23D07B6893F85130DBB2032B50
:1055500011D07B685B6D43F004027B685A650023C1
:105560007B617B681B68DB687B617B681B689B6871
:105570007B617B690BE000233B617B681B68DB6818
:105580003B617B681B689B683B613B696EE0BB6964
:1055900003F02003002B14D07B685B6D43F0010205
:1055A0007B685A650023FB607B681B689B68FB6017
:1055B0007B681B681A687B681B6822F040021A60CF
:1055C000FB687B685B6D002B4FD07B681B685A685B
:1055D0007B681B6822F0E0025A607B68012283F836
:1055E0005120FB6903F00203002B04D1FB6903F097
:1055F0000103002B34D07B681B685A687B681B68EA
:1056000022F003025A607B68DB6C002B11D07B68B0
:10561000DB6C184A5A637B68DB6C1846FEF712F89D
:105620000346002B05D07B685B6D43F040027B682E
:105630005A657B689B6C002B16D07B689B6C0D4A6F
:105640005A637B689B6C1846FDF7FCFF0346002BF2
:105650000AD07B685B6D43F040027B685A6503E0CB
:10566000786800F012F800E000BF00BF2037BD46A8
:1056700080BD00BF9F57000880B483B000AF786042
:1056800000BF0C37BD4680BC704780B483B000AF0C
:10569000786000BF0C37BD4680BC704780B586B0CF
:1056A00000AF78607B685B6A7B61FDF77FFA3861E9
:1056B0007B681B681B6803F02003202B3BD07B69B1
:1056C0001B685A687B691B6822F020025A607B695C
:1056D0001B685A687B691B6822F002025A603A69AB
:1056E0006421786900F0F8F80346002B05D07B6947
:1056F0005B6D43F020027B695A657B699B68002BD8
:105700000AD10023FB607B691B68DB68FB607B6957
:105710001B689B68FB60FB687B690022DA867B69FB
:10572000012283F851207B695B6D002B03D07869DF
:10573000FFF7ABFF02E07869FBF7F2FC1837BD46D4
:1057400080BD80B584B000AF78607B685B6AFB6029
:10575000F868FFF791FF00BF1037BD4680BD80B5E8
:1057600084B000AF78607B685B6AFB60FB681B6895
:105770005A68FB681B6822F003025A60FB685B6D85
:1057800043F01002FB685A65FB68012283F8512040
:10579000F868FFF77AFF00BF1037BD4680BD80B5BF
:1057A00084B000AF78607B685B6AFB60FB680022B6
:1057B000DA87FB680022DA86F868FFF766FF00BF29
:1057C0001037BD4680BD000080B588B000AFF860DE
:1057D000B9603B601346FB71FDF7E8F90246BB6A0E
:1057E0009B1A3A681344FB61FDF7E0F9B861394B45
:1057F0001B685B011B0DFA6902FB03F37B6154E03C
:105800003B68B3F1FF3F50D0FDF7D0F90246BB69CA
:10581000D31AFA699A4202D9FB69002B3DD1FB6881
:105820001B685A68FB681B6822F0E0025A60FB683C
:105830005B68B3F5827F11D1FB689B68B3F5004FBD
:1058400004D0FB689B68B3F5806F07D1FB681B68C9
:105850001A68FB681B6822F040021A60FB689B6AAA
:10586000B3F5005F0FD1FB681B681A68FB681B6803
:1058700022F400521A60FB681B681A68FB681B68F8
:1058800042F400521A60FB68012283F85120FB6841
:10589000002283F85020032317E07B69002B01D1FD
:1058A0000023FB617B69013B7B61FB681B689A6895
:1058B000BB681340BA689A420CBF01230023DBB2D5
:1058C0001A46FB799A429BD1002318462037BD46E1
:1058D00080BD00BF0400002080B586B002AFF86034
:1058E000B9607A607B680093BB6801220221F86886
:1058F000FFF76AFF0346002B07D0FB685B6D43F0A0
:105900002002FB685A65032313E07B680093BB68A1
:1059100000228021F868FFF757FF0346002B07D0CD
:10592000FB685B6D43F02002FB685A65032300E0CF
:10593000002318461037BD4680BD80B582B000AF49
:1059400078607B68002B01D1012341E07B6893F8EC
:105950003D30DBB2002B06D17B68002283F83C206F
:105960007868FCF7DFFE7B68022283F83D207B68C5
:105970001A687B6804331946104600F03FF97B68CB
:10598000012283F846207B68012283F83E207B6851
:10599000012283F83F207B68012283F840207B6846
:1059A000012283F841207B68012283F842207B6832
:1059B000012283F843207B68012283F844207B681E
:1059C000012283F845207B68012283F83D200023D3
:1059D00018460837BD4680BD80B485B000AF7860FA
:1059E0007B6893F83D30DBB2012B01D0012332E01C
:1059F0007B68022283F83D207B681B68184A93422B
:105A00000ED07B681B68B3F1804F09D07B681B68A0
:105A1000144A934204D07B681B68134A934211D105
:105A20007B681B689B6803F00703FB60FB68062B21
:105A300010D07B681B681A687B681B6842F0010203
:105A40001A6007E07B681B681A687B681B6842F075
:105A500001021A60002318461437BD4680BC704707
:105A6000002C0140000400400008004080B584B0D4
:105A700000AF786039600023FB737B6893F83C309B
:105A8000012B01D10223B4E07B68012283F83C2082
:105A90007B68022283F83D207B681B689B68BB60A3
:105AA000BB6823F07703BB60BB6823F47F43BB6014
:105AB0007B681B68BA689A603B681B68B3F5005F37
:105AC0003ED0B3F5005F00F28780B3F5805F00F051
:105AD0008680B3F5805F7FD8702B1AD0702B7BD86F
